{
    "contractName": "Logic",
    "abi": [
        {
            "anonymous": false,
            "inputs": [
                {
                    "indexed": false,
                    "internalType": "uint256",
                    "name": "result",
                    "type": "uint256"
                }
            ],
            "name": "Added",
            "type": "event"
        },
        {
            "anonymous": false,
            "inputs": [],
            "name": "Fallback",
            "type": "event"
        },
        {
            "stateMutability": "nonpayable",
            "type": "fallback"
        },
        {
            "inputs": [
                {
                    "internalType": "uint256",
                    "name": "a",
                    "type": "uint256"
                },
                {
                    "internalType": "uint256",
                    "name": "b",
                    "type": "uint256"
                }
            ],
            "name": "add",
            "outputs": [],
            "stateMutability": "nonpayable",
            "type": "function"
        },
        {
            "inputs": [],
            "name": "getValue",
            "outputs": [
                {
                    "internalType": "uint256",
                    "name": "",
                    "type": "uint256"
                }
            ],
            "stateMutability": "view",
            "type": "function"
        }
    ],
    "bytecode": "6080604052600a60005534801561001557600080fd5b50610155806100256000396000f3fe608060405234801561001057600080fd5b50600436106100365760003560e01c80632096525514610061578063771602f714610076575b6040517f52b4643cca14f009d3eef2bb2517ebc5918c9152c5038af8258985bdd6ca258090600090a1005b60005460405190815260200160405180910390f35b6100896100843660046100d7565b61008b565b005b600061009782846100f9565b60008190556040518181529091507f64a55044d1f2eddebe1b90e8e2853e8e96931cefadbfa0b2ceb34bee360619419060200160405180910390a1505050565b600080604083850312156100ea57600080fd5b50508035926020909101359150565b6000821982111561011a57634e487b7160e01b600052601160045260246000fd5b50019056fea2646970667358221220c7f99fb29a5f2fe4f769c861a359df3ea6534c925c8ccf5a25137e38bfd3001e64736f6c634300080d0033",
    "sourcePath": "f:/blockchain/blockchainTraining/packages/hardhat/contracts/logic.sol",
    "compiler": {
        "name": "solc",
        "version": "0.8.13+commit.abaa5c0e"
    },
    "functionHashes": {
        "add(uint256,uint256)": "771602f7",
        "getValue()": "20965255"
    },
    "gasEstimates": {
        "creation": {
            "codeDepositCost": "68200",
            "executionCost": "22223",
            "totalCost": "90423"
        },
        "external": {
            "": "888",
            "add(uint256,uint256)": "23497",
            "getValue()": "2246"
        }
    }
}