{
    "contractName": "Logic",
    "abi": [
        {
            "anonymous": false,
            "inputs": [
                {
                    "indexed": false,
                    "internalType": "uint256",
                    "name": "x",
                    "type": "uint256"
                },
                {
                    "indexed": false,
                    "internalType": "uint256",
                    "name": "y",
                    "type": "uint256"
                }
            ],
            "name": "Add",
            "type": "event"
        },
        {
            "inputs": [
                {
                    "internalType": "uint256",
                    "name": "x",
                    "type": "uint256"
                },
                {
                    "internalType": "uint256",
                    "name": "y",
                    "type": "uint256"
                }
            ],
            "name": "add",
            "outputs": [
                {
                    "internalType": "uint256",
                    "name": "",
                    "type": "uint256"
                }
            ],
            "stateMutability": "nonpayable",
            "type": "function"
        },
        {
            "inputs": [],
            "name": "getValue",
            "outputs": [
                {
                    "internalType": "uint256",
                    "name": "",
                    "type": "uint256"
                }
            ],
            "stateMutability": "view",
            "type": "function"
        }
    ],
    "bytecode": "608060405234801561001057600080fd5b50610124806100206000396000f3fe6080604052348015600f57600080fd5b506004361060325760003560e01c806320965255146037578063771602f714604d575b600080fd5b6000545b60405190815260200160405180910390f35b603b605836600460a8565b60006062828460c9565b60005560408051848152602081018490527f7afbe4f1c55b5f72ea356f5b4d5615831867af31454a5ca5557f315e6d11a369910160405180910390a15060005492915050565b6000806040838503121560ba57600080fd5b50508035926020909101359150565b6000821982111560e957634e487b7160e01b600052601160045260246000fd5b50019056fea2646970667358221220be33bc0e3824dc1d59078a14720ea4aaeb29d3332b78defb1ea319c6745285d864736f6c634300080d0033",
    "sourcePath": "f:/blockchain/blockchainTraining/packages/hardhat/contracts/logic.sol",
    "compiler": {
        "name": "solc",
        "version": "0.8.13+commit.abaa5c0e"
    },
    "functionHashes": {
        "add(uint256,uint256)": "771602f7",
        "getValue()": "20965255"
    },
    "gasEstimates": {
        "creation": {
            "codeDepositCost": "58400",
            "executionCost": "111",
            "totalCost": "58511"
        },
        "external": {
            "add(uint256,uint256)": "25896",
            "getValue()": "2247"
        }
    }
}