{
  "address": "0xa9AA8c508710609b815144b691C381C5DA63044F",
  "abi": [
    {
      "inputs": [
        {
          "internalType": "address",
          "name": "router",
          "type": "address"
        }
      ],
      "stateMutability": "nonpayable",
      "type": "constructor"
    },
    {
      "inputs": [
        {
          "internalType": "address",
          "name": "token",
          "type": "address"
        },
        {
          "internalType": "uint256",
          "name": "amountTokenDesired",
          "type": "uint256"
        }
      ],
      "name": "addLiquidity",
      "outputs": [
        {
          "internalType": "uint256",
          "name": "amountToken",
          "type": "uint256"
        },
        {
          "internalType": "uint256",
          "name": "amountETH",
          "type": "uint256"
        },
        {
          "internalType": "uint256",
          "name": "liquidity",
          "type": "uint256"
        }
      ],
      "stateMutability": "payable",
      "type": "function"
    },
    {
      "inputs": [],
      "name": "router02",
      "outputs": [
        {
          "internalType": "contract IUniswapV2Router02",
          "name": "",
          "type": "address"
        }
      ],
      "stateMutability": "view",
      "type": "function"
    }
  ],
  "transactionHash": "0x480baab60500f5282ba4887d3caf2afc79bf1574e372d772801c22f0b521c278",
  "args": [
    "0x8536bdC5c89Cf73261199CB5C1676fc8e73520Ac"
  ],
  "numDeployments": 5,
  "solcInputHash": "03a2d99568feac2a2604cd110dadfbe8",
  "bytecode": "0x608060405234801561001057600080fd5b506040516103b03803806103b083398101604081905261002f91610054565b600080546001600160a01b0319166001600160a01b0392909216919091179055610084565b60006020828403121561006657600080fd5b81516001600160a01b038116811461007d57600080fd5b9392505050565b61031d806100936000396000f3fe6080604052600436106100295760003560e01c8063566887001461002e578063bd00c9c414610061575b600080fd5b61004161003c366004610258565b610099565b604080519384526020840192909252908201526060015b60405180910390f35b34801561006d57600080fd5b50600054610081906001600160a01b031681565b6040516001600160a01b039091168152602001610058565b60405163a9059cbb60e01b815230600482015260248101829052600090819081906001600160a01b0386169063a9059cbb90604401602060405180830381600087803b1580156100e857600080fd5b505af11580156100fc573d6000803e3d6000fd5b505050506040513d601f19601f820116820180604052508101906101209190610290565b5060005460405163095ea7b360e01b81526001600160a01b039182166004820152602481018690529086169063095ea7b390604401602060405180830381600087803b15801561016f57600080fd5b505af1158015610183573d6000803e3d6000fd5b505050506040513d601f19601f820116820180604052508101906101a79190610290565b506000805460405163f305d71960e01b81526001600160a01b038881166004830152602482018890526044820184905260648201939093523360848201524260a482015291169063f305d71990349060c4016060604051808303818588803b15801561021257600080fd5b505af1158015610226573d6000803e3d6000fd5b50505050506040513d601f19601f8201168201806040525081019061024b91906102b9565b9250925092509250925092565b6000806040838503121561026b57600080fd5b82356001600160a01b038116811461028257600080fd5b946020939093013593505050565b6000602082840312156102a257600080fd5b815180151581146102b257600080fd5b9392505050565b6000806000606084860312156102ce57600080fd5b835192506020840151915060408401519050925092509256fea2646970667358221220da9747d09b4c843eb2c608fa919e92c4d35cc02254f90123a32b423fa4c5b7a464736f6c63430008070033",
  "devdoc": {
    "kind": "dev",
    "methods": {},
    "version": 1
  },
  "userdoc": {
    "kind": "user",
    "methods": {
      "addLiquidity(address,uint256)": {
        "notice": "token:  amountTokenDesired  to: "
      }
    },
    "version": 1
  },
  "storageLayout": {
    "storage": [
      {
        "astId": 1240,
        "contract": "contracts/MyTokenMarket.sol:MyTokenMarket",
        "label": "router02",
        "offset": 0,
        "slot": "0",
        "type": "t_contract(IUniswapV2Router02)1731"
      }
    ],
    "types": {
      "t_contract(IUniswapV2Router02)1731": {
        "encoding": "inplace",
        "label": "contract IUniswapV2Router02",
        "numberOfBytes": "20"
      }
    }
  }
}