{
    "contractName": "Teacher",
    "abi": [
        {
            "inputs": [
                {
                    "internalType": "address",
                    "name": "scoreAddress",
                    "type": "address"
                }
            ],
            "stateMutability": "nonpayable",
            "type": "constructor"
        },
        {
            "inputs": [
                {
                    "internalType": "uint32",
                    "name": "student",
                    "type": "uint32"
                },
                {
                    "internalType": "uint8",
                    "name": "score",
                    "type": "uint8"
                }
            ],
            "name": "addStudentScore",
            "outputs": [],
            "stateMutability": "nonpayable",
            "type": "function"
        },
        {
            "inputs": [
                {
                    "internalType": "address",
                    "name": "teacher",
                    "type": "address"
                }
            ],
            "name": "addTeacherRole",
            "outputs": [],
            "stateMutability": "nonpayable",
            "type": "function"
        },
        {
            "inputs": [
                {
                    "internalType": "uint32",
                    "name": "student",
                    "type": "uint32"
                },
                {
                    "internalType": "uint8",
                    "name": "score",
                    "type": "uint8"
                }
            ],
            "name": "changeStudentScore",
            "outputs": [],
            "stateMutability": "nonpayable",
            "type": "function"
        }
    ],
    "bytecode": "608060405234801561001057600080fd5b506040516104aa3803806104aa83398101604081905261002f91610062565b60008054336001600160a01b031991821617909155600280549091166001600160a01b0392909216919091179055610092565b60006020828403121561007457600080fd5b81516001600160a01b038116811461008b57600080fd5b9392505050565b610409806100a16000396000f3fe608060405234801561001057600080fd5b50600436106100415760003560e01c806391a7618714610046578063976c61c31461005b578063f054e6dc1461006e575b600080fd5b61005961005436600461035b565b610081565b005b61005961006936600461038b565b610195565b61005961007c36600461038b565b610291565b6000546001600160a01b031633146100e05760405162461bcd60e51b815260206004820152601c60248201527f6d73672e73656e646572207065726d697373696f6e2064656e6965640000000060448201526064015b60405180910390fd5b6001600160a01b0381166101365760405162461bcd60e51b815260206004820152601e60248201527f746561636865722061646472657373206e6f742061646472657373283029000060448201526064016100d7565b604051663a32b0b1b432b960c91b602082015260270160408051601f1981840301815291815281516020928301206001600160a01b0390931660009081526001909252902080546001600160a01b03191660609290921c919091179055565b604051663a32b0b1b432b960c91b602082015260270160408051601f19818403018152918152815160209283012033600090815260019093529120546001600160a01b031660609190911c146102205760405162461bcd60e51b815260206004820152601060248201526f6e6f74207465616368657220726f6c6560801b60448201526064016100d7565b60025460405163976c61c360e01b815263ffffffff8416600482015260ff831660248201526001600160a01b039091169063976c61c3906044015b600060405180830381600087803b15801561027557600080fd5b505af1158015610289573d6000803e3d6000fd5b505050505050565b604051663a32b0b1b432b960c91b602082015260270160408051601f19818403018152918152815160209283012033600090815260019093529120546001600160a01b031660609190911c1461031c5760405162461bcd60e51b815260206004820152601060248201526f6e6f74207465616368657220726f6c6560801b60448201526064016100d7565b600254604051633c1539b760e21b815263ffffffff8416600482015260ff831660248201526001600160a01b039091169063f054e6dc9060440161025b565b60006020828403121561036d57600080fd5b81356001600160a01b038116811461038457600080fd5b9392505050565b6000806040838503121561039e57600080fd5b823563ffffffff811681146103b257600080fd5b9150602083013560ff811681146103c857600080fd5b80915050925092905056fea264697066735822122039dd249e39799f98dbbd3a579ce0552db2ca9fbf54ab4b688f1d939f8272272164736f6c634300080a0033",
    "sourcePath": "/Users/mac/Desktop/blockchainTrainingCode/W2-1/contracts/w2-2/Teacher.sol",
    "compiler": {
        "name": "solc",
        "version": "0.8.10+commit.fc410830"
    },
    "functionHashes": {
        "addStudentScore(uint32,uint8)": "976c61c3",
        "addTeacherRole(address)": "91a76187",
        "changeStudentScore(uint32,uint8)": "f054e6dc"
    },
    "gasEstimates": {
        "creation": {
            "codeDepositCost": "206600",
            "executionCost": "infinite",
            "totalCost": "infinite"
        },
        "external": {
            "addStudentScore(uint32,uint8)": "infinite",
            "addTeacherRole(address)": "26905",
            "changeStudentScore(uint32,uint8)": "infinite"
        }
    }
}